:1000000002000375814D120128E582600302006F32
:10001000780079007A007B007C007D00EC4D601C4C
:1000200088828983E493A3A882A9838A828B83F040
:10003000A3AA82AB831CBCFFE31D80E07582007520
:1000400083007C007D00EC4D600AE4F0A31CBCFF43
:10005000F51D80F27582007583007C007D00EC4DFB
:10006000600AE4F0A31CBCFFF51D80F21200FC1234
:10007000017480FE1B5B303B3325643B3425646D8B
:10008000001B5B324A001B5B25643B256448004D26
:100090006F746F7220416E676C65202020202020D5
:1000A0003A3A3A000A436F6E74726F6C6C65722054
:1000B000416E676C65203A3A3A20000A4C696E65D9
:1000C000617220506F736974696F6E20203A3A3AFA
:1000D00020002569202020202000256920202020C4
:1000E000000A50574D203A3A3A2025692020202016
:1000F000003C4E4F20464C4F41543E0075225775F0
:10010000230475242875250375268D752703E4F5CA
:1001100028F529E4F52AF52BE4F536F537E4F5382A
:10012000F539E4F53AF53B2275E60075E70075D63A
:100130000075D70075CE0075CF0075C60075C70075
:10014000758E1175BE0075BF004387807598527516
:100150009B00759AFA759B1E7589117591C0C28CAA
:10016000D28CD28E75F3FA75F2FA75F58075F4803B
:1001700075820022900001120621900002120621D1
:100180007407C0E0E4C0E0E4C0E0C0E07474C0E024
:100190007400C0E07480C0E0120908E58124F9F51C
:1001A000817481C0E07400C0E07480C0E01209086E
:1001B0001581158115817401C0E0E4C0E07401C0AF
:1001C000E0E4C0E07486C0E07400C0E07480C0E089
:1001D000120908E58124F9F581748FC0E07400C02C
:1001E000E07480C0E012090815811581158174A49E
:1001F000C0E07400C0E07480C0E0120908158115E9
:1002000081158174BBC0E07400C0E07480C0E0124E
:1002100009081581158115817415C0E0E4C0E074EA
:1002200001C0E0E4C0E07486C0E07400C0E0748007
:10023000C0E0120908E58124F9F5811206261207AB
:100240009AAA82AB83ACF0FD74ECC0E07451C0E0BC
:100250007405C0E07442C0E08A828B838CF0ED129A
:10026000096EAA82AB83ACF0FDE58124FCF5818A9E
:10027000828B838CF0ED1207A6858222858323C0B2
:1002800022C02374D2C0E07400C0E07480C0E012C9
:100290000908E58124FBF58175820212073E1207E9
:1002A0009AAA82AB83ACF0FD7444C0E0748BC0E0CA
:1002B000744CC0E07440C0E08A828B838CF0ED12F5
:1002C000096EAA82AB83ACF0FDE58124FCF5818A3E
:1002D000828B838CF0ED1207A6858224858325749A
:1002E00015C0E0E4C0E07402C0E0E4C0E07486C081
:1002F000E07400C0E07480C0E0120908E58124F9D0
:10030000F581C024C02574DAC0E07400C0E07480B8
:10031000C0E0120908E58124FBF58175820112070E
:100320003E12079AAA82AB83ACF0FD742BC0E07436
:1003300018C0E07415C0E07441C0E08A828B838CE1
:10034000F0ED12096EAA82AB83ACF0FDE58124FCCE
:10035000F5818A828B838CF0ED1207A68582268533
:1003600083277415C0E0E4C0E07403C0E0E4C0E09B
:100370007486C0E07400C0E07480C0E0120908E533
:100380008124F9F581C026C02774DAC0E07400C06A
:10039000E07480C0E0120908E58124FBF581E524C2
:1003A000C39522F528E5259523F5298528828529F9
:1003B000831203DEAA82AB83C002C003C002C00363
:1003C00074E1C0E07400C0E07480C0E0120908E588
:1003D0008124FBF581D003D0028AF40202188582C1
:1003E0003C85833DC3E53C945CE53D648094795055
:1003F00006753C32E4F53D853C82853D83120961FA
:10040000AC82AD83AEF0FFC004C005C006C007C01B
:1004100004C005C006C0079073D475F05A743A1230
:1004200007DA85823E85833F85F040F541E58124EA
:10043000FCF581853682853783120961AA82AB83F8
:10044000A8F0F9C03EC03FC040C0418A828B83887B
:10045000F0E912089AAA82AB83A8F0F9E58124FC9E
:10046000F5818A828B8388F0E91207A6858236851A
:100470008337852A82852B8312058AAA82AB83E57E
:100480003CC39AF538E53D9BF5398536828537833F
:10049000120961AA82AB83A8F0F9C002C003C000B0
:1004A000C001907CEE75F03F743E1207DAAA82AB71
:1004B00083A8F0F9E58124FCF581D007D006D005AA
:1004C000D004C002C003C000C0018C828D838EF0B6
:1004D000EF12089AAA82AB83ACF0FDE58124FCF50B
:1004E00081853882853983C002C003C004C00512EB
:1004F0000961AE82AF83A8F0F9C006C007C000C092
:1005000001904FDF75F08D743D1207DAAE82AF8334
:10051000A8F0F9E58124FCF581D005D004D003D002
:1005200002C006C007C000C0018A828B838CF0ED38
:1005300012089AAA82AB83ACF0FDE58124FCF58118
:100540008A828B838CF0ED1207A6AA82AB83C374D8
:10055000809AE464808BF063F08095F050067A8096
:100560007B00800FC3EA9480EB6480947F50047A10
:10057000817BFF7480C39AF53AE49BF53B853C2A66
:10058000853D2B853A82853B832285824285834344
:100590007C007D007E057F00C3E49EE464808FF0D4
:1005A00063F08095F050278E02EFCA25E0CA33EA47
:1005B000242CF88E021AEA2A242CF98702098703D0
:1005C00019A60208A603181EBEFF011F80CA854295
:1005D0002C85432D7A067B00C3E49AE464808BF07B
:1005E00063F08095F0501F8A06EBCE25E0CE33EE07
:1005F000242CF8860608860718EE2CFCEF3DFD1A21
:10060000BAFF011B80D2754405E4F5458C828D83C9
:100610000209297A01790178B8D8FED9FADAF622E6
:1006200022C291D29122D2B7C2C3D2C4C2B712069B
:100630007AD2C3D2C412067AC2C3C2C412067AAA3C
:1006400082AB83D2C3C2C4C002C00312067AAC829A
:10065000AD83D003D002D2B77544007545018A82BC
:100660008B83C004C00512087DAA82AB83D005D05D
:1006700004EA2CF582EB3DF58322A2A7E433FAE4E9
:100680005401A2E0CA13CA13CAFBA2A6E433FCE4D5
:100690005403A2E0CC13CC13A2E0CC13CC13CCFDBA
:1006A000EC2AFAED3BFBA2A5E433FCE4C42354E0BE
:1006B000CCC423CC6CCC54E0CC6CFDEC2AFAED3BE2
:1006C000FBA2A4E433FCE4C454F0CCC4CC6CCC5402
:1006D000F0CC6CFDEC2AFAED3BFBA2A3E433FCE486
:1006E000C40354F8CCC403CC6CCC54F8CC6CFDECF3
:1006F0002AFAED3BFBA2A2E433FCE4CC25E0CC33A8
:10070000CC25E0CC33FDEC2AFAED3BFBA2A1E4338F
:10071000FCE4CC25E0CC33FDEC2AFAED3BFBA2A0B7
:10072000E433FC7D00EC2AF582ED3BF58322AA82BE
:1007300053C47F8AC5748055C4FABA80F822AA824D
:1007400053C3BF75C33F43C340C28374184AF58285
:1007500012072E7A0A7B001ABAFF011BEA4B70F7C8
:1007600075825512072E743F55C5FB7A0075825568
:10077000C002C00312072ED003D002D28374F055FA
:10078000C5FC7D00EC2AFAED3BC4CAC4540F6ACA0A
:10079000540FCA6ACA8A82F58322E4AC83AB82FA18
:1007A000F9748E020ABF120AC9700AE582458345B0
:1007B000F0700122E430D112F4700BE5F0F4700611
:1007C000E58330E7012290800022700AE5F0700690
:1007D000E58320E70122907FFF22120BA6BC0003D5
:1007E000020B45EF60FA30D502B2D1E583B4FF03C6
:1007F000020B5BE582B4FF03020B5B2583400724F9
:1008000082400B020B452483145003020B5BF582DC
:10081000EA8DF0A4A8F0EA8EF0A428F8E435F0F907
:10082000EB8DF0A428E935F0F9E433CA8FF0A42960
:10083000F9EA35F0FAEBF88EF0A429F9EA35F0FA86
:10084000E433FBEC8DF0A429F9EA35F0FAE43BFB44
:10085000E88FF0A42AFAEB35F0FBE433CCFD8EF000
:10086000A42AFAEB35F0FBE43CFCED8FF0A42BFB63
:10087000EC35F0FC20E703120B73020B24E58285B4
:1008800044F0A4C582C0F08545F0A4D0F025F0C5A1
:10089000838544F0A42583F58322120BA67900E515
:1008A00083B58202800D5003120BD4E583C3958279
:1008B000120BEEE5D0C465D020E117EA2DFAEB3E2D
:1008C000FBEC3FFC50097401120BEEEC4480FC027F
:1008D0000B24C3EA9DFAEB9EFBEC9FFC500FC3E494
:1008E00099F9E49AFAE49BFBE49CFCB2D1120B73F5
:1008F000020B2402125185821885831985F01A850E
:10090000091B9008F3020CBAC008858108E5082489
:10091000FBF51BE50824FBF8861808861908861ADB
:100920009008F3120CBAD00822C2D5E58330E70D47
:10093000D2D5E4C39582F582E49583F583E545300D
:10094000E70DB2D5E4C39544F544E49545F5451269
:100950000A8D30D50BE4C39582F582E49583F58347
:1009600022AC83AB827A007900748E02126F120B74
:10097000A630D502B2D1BF0009BC0003020B680249
:100980000B5BBC0003020B45E583B4FF0BE582B4AF
:10099000FF03020B68020B45E582B4FF03020B5B09
:1009A000C395835007247F400B020B4524801450CD
:1009B00003020B5BC0E0E4CCCBCAF98D448E458FBB
:1009C00046EF54F0C4F5477583068547F0EB84F590
:1009D00082E9C4F9EAC4FAEBC4FBEC540FC478030F
:1009E000D6FC18EBD6FB18EAD6FA8582F0EDA4A85F
:1009F000F0FD8582F0EEA428FEE435F0F88582F063
:100A0000EFA428FFE435F0F8E99DF9EA9EFAEB9FA0
:100A1000FBEC98FCAD44AE45AF4630E7101582E9DB
:100A20002DF9EA3EFAEB3FFBE43CFC80EDC082D5B9
:100A30008398C3E933F9EA33FAEB33FBEC33FCC3B5
:100A4000E99DEA9EEB9FEC9400B3E413F9D002D049
:100A5000E0C44AFAD003D0E0C44BFBD004D0E0F5A8
:100A6000F0540FC44CFCD082158230F40FD3EC1339
:100A7000FCEB13FBEA13FAE913F90582E930E70A04
:100A800074012AFAE43BFBE43CFC020B3C7A10E4E0
:100A9000FBFCE58225E0F582E58333F583EB33FB50
:100AA000EC33FCEB9544F5F0EC95454006FCABF0DF
:100AB000438201DADD22FCABF0AA83A982749EC2D4
:100AC000D1F582120B73020B24121293C3749E95FC
:100AD0008240397900120BEE30D126E9F42401F579
:100AE00082EAF43400F583EBF43400F5F0ECF434EE
:100AF00000700AE582458345F0700122E430E70F7B
:100B000022EC20E71489828A838BF02230D10AE418
:100B1000F582F583F5F074802274FFF582F583F594
:100B2000F0747F22B98003EA13B34010EA2401FA7B
:100B3000E43BFBE43CFC50047C800582BC000EBB23
:100B4000000BBA0008E4F5F0F583F58222A2D1E5A6
:100B500082138CF092F78B838A8222E4F583F582EC
:100B600075F080F4A2D11322E4F583F58275F0C00C
:100B7000747F227804EC7011E58224F8500AF58223
:100B8000E4C9CACBFCD8EF22EC7820058220E71319
:100B9000D5820122C3E933F9EA33FAEB33FBEC33B4
:100BA000FCD8EA158222AA82AB83A2F73392D160E5
:100BB00002D2F7F582ACF0E58124F9F8E6FD08E60B
:100BC000FE0886F008E6A2F73392D56002D2F7F568
:100BD00083AFF022E582C583F582A2D133A2D592FC
:100BE000D11392D5ECCFFCEBCEFBEACDFA226040DC
:100BF000F82582500274FFF582E824F8501ECCCB11
:100C0000CAF9E4CC24F85014CBCAF9E4CB24F85048
:100C10000BCAF9E4CA24F8500379002224086010B2
:100C2000F8C3EC13FCEB13FBEA13FAE913F9D8F160
:100C300022AA827442C0E0740CC0E0C00AC00B8AD1
:100C400082220511E4B51102051222AA8274302A0B
:100C5000FA24C6500A74072AFA3000034302208A95
:100C600082020C31E582FAC4540FF582C002120CE4
:100C70004BD002740F5AF582020C4BAA0CAB0DAC90
:100C80000EAD0FAE10751720EE2EFEED235401FFB2
:100C90004206EA2AFAEB33FBEC33FCED33FDC3EEFC
:100CA00095134008EEC39513FE430201D517D98A68
:100CB0000C8B0D8C0E8D0F8E102285820A85830B76
:100CC000E4F511F512AA18AB19AC1A8A828B838C41
:100CD000F01212A5FD74012AF518E43BF5198C1ADF
:100CE000EDFA700302124ABA25028003021242C2D0
:100CF00004C205C206C207C208C209C20AC20BC2A8
:100D000001C202C2037513007514007515FFAB18FC
:100D1000AC19AD1A8B828C838DF01212A5FAA3AB9D
:100D200082AC838B188C198D1ABA25078A82120C13
:100D30003180928A06BE3000402E8A06EE24C640DC
:100D40002774FFB51513E51475F00AA4FEEA24D044
:100D50002EF51470BFD20580BBE51575F00AA4FE10
:100D6000EA24D02EF51580ACBA2E0A74FFB515A46E
:100D7000751500809F8A06BE6100400E8A06EE242B
:100D80008540075302DFD2008002C200BA200280F1
:100D900075BA2303020E15BA2A03020E1ABA2B02E1
:100DA000805FBA2D028055BA4202805FBA430302C7
:100DB0000E5FBA4403020F9ABA4503020FB4BA4653
:100DC00003020FB0BA4703020FB8BA4903020F9AE1
:100DD000BA4C02803BBA4E03020FBCBA4F03020F5B
:100DE000A1BA5003020F33BA5303020E83BA55035C
:100DF000020FA6BA5803020FAB020FE6D204020D8F
:100E000014D206020D14D207020D14D209020D14D9
:100E1000D20A020D14D20B020D1474FFB515203046
:100E2000090BE51B14F8881B8614020D14E51B241E
:100E3000FEF8881B8606088607188E14020D1430EB
:100E4000090BE51B14F8881B8615020D14E51B24FD
:100E5000FEF8881B8606088607188E15020D1430CA
:100E6000090AE51B14F8881B8602800FE51B24FE87
:100E7000F8881B8603088604188B028A82120C31BC
:100E8000020FEBE51B24FDF8881B86030886040887
:100E9000860518188B0C8C0D8D0E8B828C838DF033
:100EA0001212DAAB82AC838B1674FFB5150385166C
:100EB0001520041DC3E51695145016E514C39516A8
:100EC000F514AB141514EB6008758220120C3180F8
:100ED000F1850C82850D83850EF01212A5FBFA6058
:100EE00029AB151515C3E464808BF063F08095F091
:100EF00050188A82120C31AB0CAC0DAD0E0BBB003E
:100F0000010C8B0C8C0D8D0E80C7200403020FEB9F
:100F1000C3E51695144003020FEBE514C39516F5CF
:100F200014AB141514EB7003020FEB758220120C36
:100F30003180EEE51B24FDF8881B86030886040833
:100F4000860518188B0C8C0D8D0EE50EFB30E70412
:100F50007A438013EB546060047A50800AEB30E6E9
:100F6000047A4980027A588A82C002120C31758252
:100F70003A120C31758230120C31758278120C31B4
:100F8000D002BA4902800BBA50028006850D821247
:100F90000C64850C82120C648051D20875130A808F
:100FA0004A751308804575130A8040751310803BFD
:100FB000D2018037D2028033D203802FE51B24FD7B
:100FC000F8881B860308860408860518188B0C8C85
:100FD0000D8D0E8B828C838DF0E5111212C1A3E56D
:100FE000121212C180058A82120C312001062002E1
:100FF0000330035AE51B24FCF8881B86030886048B
:101000000886050886061818188B0C8C0D8D0E8E18
:101010000F750CF1750D00750E80850C1C850D1D6E
:10102000850E1E7401251CFEE4351DFFAB1E8E0CC3
:101030008F0D8B0E851C82851D83851EF01212A5D7
:10104000FBFA7003020CC58A82120C3180CCE513C6
:101050007003020CC57B4D30092BE51B14F8881B6F
:10106000E6FC3395E0FDFEFF8C0C8D0D8E0E8F0F90
:1010700020085EAC0C7D007E007F008C0C8D0D8EF8
:101080000E8F0F804C300A1FE51B24FCF8881B864E
:10109000040886050886060886071818188C0C8D23
:1010A0000D8E0E8F0F802AE51B24FEF8881B860408
:1010B00008860518ED3395E0FEFF8C0C8D0D8E0E25
:1010C0008F0F20080CAC0CAD0D7E007F008E0E8FB4
:1010D0000F300B43E50C450D450E450F6039740884
:1010E000B5130C758230C003120C31D00380287404
:1010F00010B51323758230C003120C31D0033000B9
:101100000C758278C003120C31D003800A758258A6
:10111000C003120C31D003300825AC0CAD0DAE0E5F
:10112000E50FFF30E717C3E49CFCE49DFDE49EFE61
:10113000E49FFF8C0C8D0D8E0E8F0F8002C2087500
:101140001600D20C8B00751000C000120C7BD00072
:10115000200C0DE510C4FCE6FD4CF6188803800257
:10116000A6100516B20CE50C450D450E450F70D6C0
:101170008803E514700375140120051A200417E58F
:101180001604FCC39514500E758220C003120C3156
:10119000D003151480E930080E75822DC003120C9F
:1011A00031D00315148024E516602030060E7582B8
:1011B0002BC003120C31D0031514800F30070C75AF
:1011C0008220C003120C31D003151420041EAC146D
:1011D0001514C3E5169C50273005047C3080027C32
:1011E000208C82C003120C31D00380E2C3E5169537
:1011F000145009E514C39516F51480037514008B7B
:1012000000AB161516EB6022B20C200C0A08E6C4DF
:10121000540FFB8B1080078603740F5BF51085104D
:1012200082C000120C4BD00080D7200403020CC5F2
:10123000AB141514EB7003020CC5758220120C312F
:1012400080EE8A82120C31020CC5851182851283D0
:1012500022AA82BA0A0810990280FB75990D10998A
:101260000280FB8A9922FCABF0AA83A982749EF5C6
:1012700082C2D1EC30E716D2D1E9F42401F9EAF4C4
:101280003400FAEBF43400FBECF43400FC120B7382
:10129000020B24AA82AB83A2F73392D16002D2F769
:1012A000F582ACF02220F71430F6148883A882204F
:1012B000F507E6A88375830022E280F7E49322E035
:1012C0002220F71030F6118883A88220F507F6A8AF
:1012D0008375830022F280F7F022AA82AB83ACF000
:1012E0007D007E008A828B838CF01212A5FFA3AA58
:1012F00082AB83EF60070DBD00EA0E80E78D828E22
:101300008322000000000000000000000000000038
:00000001FF
