:1000000002002E00000000000000000000000000C0
:1000200000000000000000000000000201E47581F3
:1000300052120174E582600302009A780079007A16
:10004000007B007C007D00EC4D601C88828983E48D
:1000500093A3A882A9838A828B83F0A3AA82AB830D
:100060001CBCFFE31D80E07582007583007C007D71
:1000700000EC4D600AE4F0A31CBCFFF51D80F27596
:1000800082007583007C007D00EC4D600AE4F0A3E3
:100090001CBCFFF51D80F212013D12031480FE1BF3
:1000A0005B303B3325643B3425646D001B5B324A77
:1000B000001B5B25643B256448004D6F746F722004
:1000C000416E676C652020202020203A3A3A000AD1
:1000D0004C696E204D6F746F7220416E676C6520A5
:1000E000203A3A3A000A536574706F696E74204181
:1000F0006E676C652020203A3A3A20000A4C696EFF
:1001000065617220506F736974696F6E20203A3A8E
:100110003A20002569202020202000256920202069
:1001200020000A50574D203A3A3A202569202020D5
:1001300020003C4E4F20464C4F41543E0075235703
:100140007524047525AE752608752728752803754E
:10015000298D752A03E4F52BF52CE4F52DF52EE415
:10016000F539F53AE4F53BF53CE4F53DF53EE4F5CB
:100170003FF5402275E60075E70075D60075D7009B
:1001800075CE0075CF0075C60075C700758E1175E8
:10019000BE0075BF00438780759852759B00759AA5
:1001A000FA759B1E7589117591C0C28CD28CD28E46
:1001B00075F3FA75F2FA75F58075F48053C9FC434E
:1001C000C901C2CEC2CCC2CDC2CB75CD1175CCBBDC
:1001D00075CB1175CABBC2C9C2C8D2AFD2ADD2CA23
:1001E00075820022C020C0E0C0F0C082C083C0027F
:1001F000C003C004C005C006C007C000C001C0D015
:1002000075D00090000112072885822385832490F1
:10021000000212072885822585832675820112092E
:10022000951209F1AA82AB83ACF0FD7444C0E0746E
:100230008BC0E0744CC0E07440C0E08A828B838C39
:10024000F0ED120BC5AA82AB83ACF0FDE58124FC76
:10025000F5818A828B838CF0ED1209FD85822785DA
:100260008328C3742C952774818528F063F08095CA
:10027000F050069000021204D975820012099512FE
:1002800009F1AA82AB83ACF0FD74CDC0E074CCC0A0
:10029000E07414C0E07441C0E08A828B838CF0ED7E
:1002A000120BC5AA82AB83ACF0FDE58124FCF5817D
:1002B0008A828B838CF0ED1209FD85822985832A41
:1002C000C374509529E46480852AF063F08095F02A
:1002D00050069000011204D9E527C39523F52BE5BC
:1002E000289524F52C852B82852C831204F3858296
:1002F0003F858340853FF4D0D0D001D000D007D0D7
:1003000006D005D004D003D002D083D082D0F0D064
:10031000E0D020329000011204D99000021204D9DA
:100320007407C0E0E4C0E0E4C0E0C0E0749FC0E057
:100330007400C0E07480C0E0120B5FE58124F9F521
:100340008174ACC0E07400C0E07480C0E0120B5F48
:100350001581158115817401C0E0E4C0E07401C00D
:10036000E0E4C0E074B1C0E07400C0E07480C0E0BC
:10037000120B5FE58124F9F58174BAC0E07400C006
:10038000E07480C0E0120B5F15811581158174CF78
:10039000C0E07400C0E07480C0E0120B5F158115EE
:1003A00081158174E5C0E07400C0E07480C0E01283
:1003B0000B5F15811581158174FCC0E07400C0E0ED
:1003C0007480C0E0120B5F1581158115817416C011
:1003D000E0E4C0E07401C0E0E4C0E074B1C0E074E7
:1003E00000C0E07480C0E0120B5FE58124F9F58164
:1003F000C023C0247413C0E07401C0E07480C0E066
:10040000120B5FE58124FBF5817416C0E0E4C0E0C7
:100410007402C0E0E4C0E074B1C0E07400C0E074F5
:1004200080C0E0120B5FE58124F9F581C025C0266C
:100430007413C0E07401C0E07480C0E0120B5FE58B
:100440008124FBF5817416C0E0E4C0E07403C0E0D1
:10045000E4C0E074B1C0E07400C0E07480C0E01299
:100460000B5FE58124F9F581C027C028741BC0E02B
:100470007401C0E07480C0E0120B5FE58124FBF5DD
:10048000817416C0E0E4C0E07404C0E0E4C0E0742D
:10049000B1C0E07400C0E07480C0E0120B5FE58181
:1004A00024F9F581C029C02A741BC0E07401C0E0A2
:1004B0007480C0E0120B5FE58124FBF581C03FC072
:1004C000407422C0E07401C0E07480C0E0120B5F91
:1004D000E58124FBF5810203CDAA82AB83BA010832
:1004E000BB0005C291D29122BA0207BB0004C2929E
:1004F000D29222858241858342C3E541945CE542E4
:10050000648094795006754132E4F54285418285D4
:100510004283120BB8AC82AD83AEF0FFC004C005BD
:10052000C006C007C004C005C006C0079073D475DC
:10053000F05A743A120A3185824385834485F04526
:10054000F546E58124FCF581853982853A83120BD5
:10055000B8AA82AB83A8F0F9C043C044C045C046E6
:100560008A828B8388F0E9120AF1AA82AB83A8F011
:10057000F9E58124FCF5818A828B8388F0E91209F0
:10058000FD85823985833A852D82852E8312069FCB
:10059000AA82AB83E541C39AF53BE5429BF53C85D6
:1005A0003982853A83120BB8AA82AB83A8F0F9C0CE
:1005B00002C003C000C001907CEE75F03F743E1293
:1005C0000A31AA82AB83A8F0F9E58124FCF581D039
:1005D00007D006D005D004C002C003C000C0018C03
:1005E000828D838EF0EF120AF1AA82AB83ACF0FD0C
:1005F000E58124FCF581853B82853C83C002C003F4
:10060000C004C005120BB8AE82AF83A8F0F9C006D3
:10061000C007C000C001904FDF75F08D743D120A15
:1006200031AE82AF83A8F0F9E58124FCF581D005D5
:10063000D004D003D002C006C007C000C0018A8227
:100640008B838CF0ED120AF1AA82AB83ACF0FDE54E
:100650008124FCF5818A828B838CF0ED1209FDAA3E
:1006600082AB83C374809AE464808BF063F08095DE
:10067000F050067A807B00800FC3EA9480EB6480A0
:10068000947F50047A817BFF7480C39AF53DE49B8C
:10069000F53E85412D85422E853D82853E8322850E
:1006A00082478583487C007D007E057F00C3E49EF1
:1006B000E464808FF063F08095F050278E02EFCADB
:1006C00025E0CA33EA242FF88E021AEA2A242FF9E9
:1006D000870209870319A60208A603181EBEFF0198
:1006E0001F80CA85472F8548307A067B00C3E49A6D
:1006F000E464808BF063F08095F0501F8A06EBCEA7
:1007000025E0CE33EE242FF8860608860718EE2C57
:10071000FCEF3DFD1ABAFF011B80D2754905E4F5D7
:100720004A8C828D83020B80AA82AB83E4BA0104D7
:10073000BB000104FC6004D2B68008BA0205BB000D
:1007400002D2B7C2C3D2C4EC6004C2B68008BA02F7
:1007500005BB0002C2B78A828B83C002C003C004FB
:100760001207EFD004D003D002D2C3D2C48A828B46
:1007700083C002C003C0041207EFD004D003D0022C
:10078000C2C3C2C48A828B83C002C003C0041207E2
:10079000EFAD82AE83D004D003D002D2C3C2C48AEC
:1007A000828B83C002C003C004C005C0061207EFDD
:1007B000AF82A883D006D005D004D003D002EC606D
:1007C00004D2B68008BA0205BB0002D2B775490050
:1007D000754A018D828E83C007C000120AD4AA8296
:1007E000AB83D000D007EA2FF582EB38F58322AA3D
:1007F00082AB837C007D00BA0105BB00028003024E
:1008000008B6A2A7E433FEE45401A2E0CE13CE134F
:10081000CEFFA2A6E433F8E45403A2E0C813C81341
:10082000A2E0C813C813C8F9E82EFEE93FFFA2A54D
:10083000E433F8E4C42354E0C8C423C868C854E0CF
:10084000C868F9E82EFEE93FFFA2A4E433F8E4C447
:1008500054F0C8C4C868C854F0C868F9E82EFEE966
:100860003FFFA2A3E433F8E4C40354F8C8C403C8A8
:1008700068C854F8C868F9E82EFEE93FFFA2A2E470
:1008800033F8E4C825E0C833C825E0C833F9E82EBA
:10089000FEE93FFFA2A1E433F8E4C825E0C833F93C
:1008A000E82EFEE93FFFA2A0E433F87900E82EFC31
:1008B000E93FFD020972BA0205BB0002800302098A
:1008C00072A287E433FAE45401A2E0CA13CA13CA3D
:1008D000FBA286E433FEE45403A2E0CE13CE13A2BF
:1008E000E0CE13CE13CEFFEE2AFAEF3BFBA285E457
:1008F00033FEE4C42354E0CEC423CE6ECE54E0CE07
:100900006EFFEE2AFAEF3BFBA284E433FEE4C4540C
:10091000F0CEC4CE6ECE54F0CE6EFFEE2AFAEF3B90
:10092000FBA283E433FEE4C40354F8CEC403CE6ECA
:10093000CE54F8CE6EFFEE2AFAEF3BFBA282E433F0
:10094000FEE4CE25E0CE33CE25E0CE33FFEE2AFA0C
:10095000EF3BFBA281E433FEE4CE25E0CE33FFEE95
:100960002AFAEF3BFBA280E433FE7F00EE2AFCEF85
:100970003BFD8C828D83227A01790178B8D8FED92B
:10098000FADAF62222AA8253C47F8AC5748055C43B
:10099000FABA80F822AA8253C3BF75C33F43C3404B
:1009A000C29474184AF5821209857A0A7B001ABA31
:1009B000FF011BEA4B70F7758255120985743F558C
:1009C000C5FB7A00758255C002C003120985D003A9
:1009D000D002D29474F055C5FC7D00EC2AFAED3BB0
:1009E000C4CAC4540F6ACA540FCA6ACA8A82F58339
:1009F00022E4AC83AB82FAF9748E020D16120D203C
:100A0000700AE582458345F0700122E430D112F48A
:100A1000700BE5F0F47006E58330E701229080006A
:100A200022700AE5F07006E58320E70122907FFF3F
:100A300022120DFDBC0003020D9CEF60FA30D502BE
:100A4000B2D1E583B4FF03020DB2E582B4FF030225
:100A50000DB2258340072482400B020D9C24831491
:100A60005003020DB2F582EA8DF0A4A8F0EA8EF0F0
:100A7000A428F8E435F0F9EB8DF0A428E935F0F975
:100A8000E433CA8FF0A429F9EA35F0FAEBF88EF0D6
:100A9000A429F9EA35F0FAE433FBEC8DF0A429F946
:100AA000EA35F0FAE43BFBE88FF0A42AFAEB35F0E4
:100AB000FBE433CCFD8EF0A42AFAEB35F0FBE43CEA
:100AC000FCED8FF0A42BFBEC35F0FC20E703120DBE
:100AD000CA020D7BE5828549F0A4C582C0F0854A33
:100AE000F0A4D0F025F0C5838549F0A42583F583D3
:100AF00022120DFD7900E583B58202800D500312AC
:100B00000E2BE583C39582120E45E5D0C465D02037
:100B1000E117EA2DFAEB3EFBEC3FFC5009740112A1
:100B20000E45EC4480FC020D7BC3EA9DFAEB9EFB74
:100B3000EC9FFC500FC3E499F9E49AFAE49BFBE4C0
:100B40009CFCB2D1120DCA020D7B0214A88582183A
:100B500085831985F01A85091B900B4A020F11C075
:100B600008858108E50824FBF51BE50824FBF886C9
:100B70001808861908861A900B4A120F11D00822FD
:100B8000C2D5E58330E70DD2D5E4C39582F582E482
:100B90009583F583E54A30E70DB2D5E4C39549F571
:100BA00049E4954AF54A120CE430D50BE4C395822A
:100BB000F582E49583F58322AC83AB827A007900D9
:100BC000748E0214C6120DFD30D502B2D1BF0009D9
:100BD000BC0003020DBF020DB2BC0003020D9CE578
:100BE00083B4FF0BE582B4FF03020DBF020D9CE549
:100BF00082B4FF03020DB2C395835007247F400BDC
:100C0000020D9C2480145003020DB2C0E0E4CCCB52
:100C1000CAF98D498E4A8F4BEF54F0C4F54C758359
:100C200006854CF0EB84F582E9C4F9EAC4FAEBC41A
:100C3000FBEC540FC47803D6FC18EBD6FB18EAD6AD
:100C4000FA8582F0EDA4A8F0FD8582F0EEA428FEDE
:100C5000E435F0F88582F0EFA428FFE435F0F8E9F8
:100C60009DF9EA9EFAEB9FFBEC98FCAD49AE4AAFCA
:100C70004B30E7101582E92DF9EA3EFAEB3FFBE431
:100C80003CFC80EDC082D58398C3E933F9EA33FA9E
:100C9000EB33FBEC33FCC3E99DEA9EEB9FEC940045
:100CA000B3E413F9D002D0E0C44AFAD003D0E0C4D0
:100CB0004BFBD004D0E0F5F0540FC44CFCD08215AF
:100CC0008230F40FD3EC13FCEB13FBEA13FAE913B5
:100CD000F90582E930E70A74012AFAE43BFBE43CB7
:100CE000FC020D937A10E4FBFCE58225E0F582E539
:100CF0008333F583EB33FBEC33FCEB9549F5F0ECF8
:100D0000954A4006FCABF0438201DADD22FCABF0F1
:100D1000AA83A982749EC2D1F582120DCA020D7BEC
:100D20001214EAC3749E958240397900120E453040
:100D3000D126E9F42401F582EAF43400F583EBF4DA
:100D40003400F5F0ECF43400700AE582458345F098
:100D5000700122E430E70F22EC20E71489828A83B5
:100D60008BF02230D10AE4F582F583F5F07480220D
:100D700074FFF582F583F5F0747F22B98003EA13DE
:100D8000B34010EA2401FAE43BFBE43CFC50047C51
:100D9000800582BC000EBB000BBA0008E4F5F0F53C
:100DA00083F58222A2D1E582138CF092F78B838A9D
:100DB0008222E4F583F58275F080F4A2D11322E457
:100DC000F583F58275F0C0747F227804EC7011E52C
:100DD0008224F8500AF582E4C9CACBFCD8EF22EC91
:100DE0007820058220E713D5820122C3E933F9EA8E
:100DF00033FAEB33FBEC33FCD8EA158222AA82AB40
:100E000083A2F73392D16002D2F7F582ACF0E5818C
:100E100024F9F8E6FD08E6FE0886F008E6A2F733B6
:100E200092D56002D2F7F583AFF022E582C583F553
:100E300082A2D133A2D592D11392D5ECCFFCEBCEC6
:100E4000FBEACDFA226040F82582500274FFF58259
:100E5000E824F8501ECCCBCAF9E4CC24F85014CBCB
:100E6000CAF9E4CB24F8500BCAF9E4CA24F85003B9
:100E700079002224086010F8C3EC13FCEB13FBEAA2
:100E800013FAE913F9D8F122AA827499C0E0740E1A
:100E9000C0E0C00AC00B8A82220511E4B511020528
:100EA0001222AA8274302AFA24C6500A74072AFA37
:100EB0003008034302208A82020E88E582FAC45475
:100EC0000FF582C002120EA2D002740F5AF58202F0
:100ED0000EA2AA0CAB0DAC0EAD0FAE10751720EE26
:100EE0002EFEED235401FF4206EA2AFAEB33FBEC17
:100EF00033FCED33FDC3EE95134008EEC39513FEAE
:100F0000430201D517D98A0C8B0D8C0E8D0F8E10D4
:100F10002285820A85830BE4F511F512AA18AB1914
:100F2000AC1A8A828B838CF01214FCFD74012AF5B2
:100F300018E43BF5198C1AEDFA70030214A1BA25D6
:100F4000028003021499C20CC20DC20EC20FC2105D
:100F5000C211C212C213C209C20AC20B75130075B4
:100F600014007515FFAB18AC19AD1A8B828C838DEC
:100F7000F01214FCFAA3AB82AC838B188C198D1A77
:100F8000BA25078A82120E8880928A06BE300040F7
:100F90002E8A06EE24C6402774FFB51513E5147596
:100FA000F00AA4FEEA24D02EF51470BFD20D80BB47
:100FB000E51575F00AA4FEEA24D02EF51580ACBA2A
:100FC0002E0A74FFB515A4751500809F8A06BE61B0
:100FD00000400E8A06EE248540075302DFD20880C7
:100FE00002C208BA20028075BA230302106CBA2A22
:100FF00003021071BA2B02805FBA2D028055BA42EB
:1010000002805FBA43030210B6BA44030211F1BA78
:10101000450302120BBA4603021207BA4703021233
:101020000FBA49030211F1BA4C02803BBA4E0302D7
:101030001213BA4F030211F8BA500302118ABA53BD
:10104000030210DABA55030211FDBA580302120264
:1010500002123DD20C020F6BD20E020F6BD20F02A6
:101060000F6BD211020F6BD212020F6BD213020F51
:101070006B74FFB5152030110BE51B14F8881B8627
:1010800014020F6BE51B24FEF8881B8606088607F2
:10109000188E14020F6B30110BE51B14F8881B8699
:1010A00015020F6BE51B24FEF8881B8606088607D1
:1010B000188E15020F6B30110AE51B14F8881B8679
:1010C00002800FE51B24FEF8881B8603088604189F
:1010D0008B028A82120E88021242E51B24FDF888D8
:1010E0001B860308860408860518188B0C8C0D8D4A
:1010F0000E8B828C838DF0121531AB82AC838B16F4
:1011000074FFB51503851615200C1DC3E51695143F
:101110005016E514C39516F514AB141514EB6008BE
:10112000758220120E8880F1850C82850D83850ED4
:10113000F01214FCFBFA6029AB151515C3E46480AA
:101140008BF063F08095F050188A82120E88AB0CF9
:10115000AC0DAD0E0BBB00010C8B0C8C0D8D0E80FD
:10116000C7200C03021242C3E51695144003021275
:1011700042E514C39516F514AB141514EB70030275
:101180001242758220120E8880EEE51B24FDF8883D
:101190001B860308860408860518188B0C8C0D8D99
:1011A0000EE50EFB30E7047A438013EB54606004D5
:1011B0007A50800AEB30E6047A4980027A588A82B3
:1011C000C002120E8875823A120E88758230120E95
:1011D00088758278120E88D002BA4902800BBA5004
:1011E000028006850D82120EBB850C82120EBB801A
:1011F00051D21075130A804A751308804575130A79
:101200008040751310803BD2098037D20A8033D2D8
:101210000B802FE51B24FDF8881B86030886040835
:10122000860518188B0C8C0D8D0E8B828C838DF09F
:10123000E511121518A3E51212151880058A8212FD
:101240000E88200906200A03300B5AE51B24FCF8FF
:10125000881B860308860408860508860618181861
:101260008B0C8C0D8D0E8E0F750C32750D01750E5D
:1012700080850C1C850D1D850E1E7401251CFEE449
:10128000351DFFAB1E8E0C8F0D8B0E851C82851DB0
:1012900083851EF01214FCFBFA7003020F1C8A8275
:1012A000120E8880CCE5137003020F1C7B523011A4
:1012B0002BE51B14F8881BE6FC3395E0FDFEFF8C44
:1012C0000C8D0D8E0E8F0F20105EAC0C7D007E00FD
:1012D0007F008C0C8D0D8E0E8F0F804C30121FE511
:1012E0001B24FCF8881B86040886050886060886E9
:1012F000071818188C0C8D0D8E0E8F0F802AE51B89
:1013000024FEF8881B860408860518ED3395E0FE58
:10131000FF8C0C8D0D8E0E8F0F20100CAC0CAD0DB4
:101320007E007F008E0E8F0F301343E50C450D4578
:101330000E450F60397408B5130C758230C0031266
:101340000E88D00380287410B51323758230C00333
:10135000120E88D00330080C758278C003120E88F4
:10136000D003800A758258C003120E88D003301053
:1013700025AC0CAD0DAE0EE50FFF30E717C3E49CB6
:10138000FCE49DFDE49EFEE49FFF8C0C8D0D8E0E13
:101390008F0F8002C210751600D2148B00751000DA
:1013A000C000120ED2D00020140DE510C4FCE6FDE2
:1013B0004CF61888038002A6100516B214E50C45F9
:1013C0000D450E450F70D68803E5147003751401A2
:1013D000200D1A200C17E51604FCC39514500E7549
:1013E0008220C003120E88D003151480E930100E3D
:1013F00075822DC003120E88D00315148024E516C3
:101400006020300E0E75822BC003120E88D003159B
:1014100014800F300F0C758220C003120E88D00389
:101420001514200C1EAC141514C3E5169C5027305F
:101430000D047C3080027C208C82C003120E88D088
:101440000380E2C3E51695145009E514C39516F51B
:101450001480037514008B00AB161516EB6022B2D6
:101460001420140A08E6C4540FFB8B10800786036F
:10147000740F5BF510851082C000120EA2D00080A0
:10148000D7200C03020F1CAB141514EB7003020FD2
:101490001C758220120E8880EE8A82120E88020F3E
:1014A0001C85118285128322AA82BA0A0810990229
:1014B00080FB75990D10990280FB8A9922FCABF094
:1014C000AA83A982749EF582C2D1EC30E716D2D1EC
:1014D000E9F42401F9EAF43400FAEBF43400FBEC0B
:1014E000F43400FC120DCA020D7BAA82AB83A2F772
:1014F0003392D16002D2F7F582ACF02220F714309B
:10150000F6148883A88220F507E6A8837583002255
:10151000E280F7E49322E02220F71030F61188836E
:10152000A88220F507F6A88375830022F280F7F0E1
:1015300022AA82AB83ACF07D007E008A828B838CF2
:10154000F01214FCFFA3AA82AB83EF60070DBD006D
:10155000EA0E80E78D828E832200000000000000EA
:00000001FF
