:1000000002002E00000000000000000000000000C0
:10002000000000000000000000000002023A75819C
:10003000691201CCE582600302009A780079007AA7
:10004000007B007C007D00EC4D601C88828983E48D
:1000500093A3A882A9838A828B83F0A3AA82AB830D
:100060001CBCFFE31D80E07582007583007C007D71
:1000700000EC4D600AE4F0A31CBCFFF51D80F27596
:1000800082007583007C007D00EC4D600AE4F0A3E3
:100090001CBCFFF51D80F212016612058680FE1B56
:1000A0005B25643B2564480025692020202000252D
:1000B000692020202020001B5B303B3325643B342B
:1000C00025646D001B5B324A00536574706F696E66
:1000D0007420416E676C652020203A3A3A20000A6D
:1000E0004D6F746F7220416E676C65202020202058
:1000F000203A3A3A000A416E67756C617220505797
:100100004D2020202020203A3A3A20000A0A4C694B
:100110006E65617220536574706F696E7420203A49
:100120003A3A20000A4C696E204D6F746F72207944
:100130002D506F7320203A3A3A20000A4C696E65C0
:1001400061722050574D0920202020203A3A3A2051
:1001500000537769746368203556003C4E4F204643
:100160004C4F41543E00752457752504E4F526F59F
:1001700027752864E4F529752AAE752B08752C2897
:10018000752D03752E8D752F03E4F530F531E4F5EB
:1001900032F533E4F534F535E4F536F537E4F54278
:1001A000F543E4F544F545E4F546F547E4F548F54F
:1001B00049E4F54AF54BE4F54CF54D75520075539D
:1001C00000755400755500C208C2092275E6007515
:1001D000E70075D60075D70075CE0075CF0075C6DF
:1001E0000075C700758E1175BE0075BF004387800E
:1001F000759852759B00759AFA759B1E75891175D5
:1002000091C0C28CD28CD28E75F3FA75F2FA75F564
:100210008075F48053C9FC43C901C2CEC2CCC2CDA3
:10022000C2CB75CD1375CC8875CB1375CA88C2C97E
:10023000C2C8D2AFD2AD75820022C020C0E0C0F0EB
:10024000C082C083C002C003C004C005C006C0078E
:10025000C000C001C0D075D000758200120E94128B
:100260000EF0AA82AB83ACF0FD7444C0E0748BC086
:10027000E0744CC0E07440C0E08A828B838CF0ED67
:100280001210EDAA82AB83ACF0FDE58124FCF58170
:100290008A828B838CF0ED120EFC85822C85832D57
:1002A0007416C0E0E4C0E07401C0E0E4C0E0749FF4
:1002B000C0E07400C0E07480C0E0121087E58124C3
:1002C000F9F581C02CC02D74A8C0E07400C0E074A2
:1002D00080C0E0121087E58124FBF5817416C0E030
:1002E000E4C0E07402C0E0E4C0E0749FC0E07400C9
:1002F000C0E07480C0E0121087E58124F9F5819098
:100300000001120A8C120EF0AA82AB83ACF0FD74CD
:100310004DC0E07455C0E07405C0E07442C0E08A8E
:10032000828B838CF0ED1210EDAA82AB83ACF0FDD2
:10033000E58124FCF5818A828B838CF0ED120EFC22
:10034000858224858325C024C02574AFC0E0740055
:10035000C0E07480C0E0121087E58124FBF581E5E0
:100360002CC39524F530E52D9525F531755601E41E
:10037000F5578530828531831207C485824885838D
:1003800049852C82852D831210E0AA82AB83ACF0C4
:10039000FD7489C0E07441C0E074A0C0E0743FC047
:1003A000E08A828B838CF0ED1210EDAA82AB83ACD5
:1003B000F0FDE58124FCF5818A828B838CF0ED12BF
:1003C000120C8582F57416C0E0E4C0E07403C0E04E
:1003D000E4C0E0749FC0E07400C0E07480C0E0122C
:1003E0001087E58124F9F581AAF57B00C002C003DE
:1003F00074A8C0E07400C0E07480C0E0121087E50B
:100400008124FBF581758201120E9485822E8583ED
:100410002F7416C0E0E4C0E07405C0E0E4C0E074EE
:100420009FC0E07400C0E07480C0E0121087E581D6
:1004300024F9F581C02EC02F74A8C0E07400C0E07C
:100440007480C0E0121087E58124FBF581900002E2
:10045000120A8C120EF0AA82AB83ACF0FD74BBC002
:10046000E07438C0E0748EC0E07441C0E08A828BD2
:10047000838CF0ED1210EDAA82AB83ACF0FDE58128
:1004800024FCF5818A828B838CF0ED120EFC858230
:100490002A85832B852A82852B83120768854C60E9
:1004A000854D61900E66120FFCAA82AB83AC2AAD1B
:1004B0002BEA2CF582EB3DF583756038E4F561128B
:1004C0000F3085822A85832B7416C0E0E4C0E07467
:1004D00006C0E0E4C0E0749FC0E07400C0E0748037
:1004E000C0E0121087E58124F9F581C02AC02B7481
:1004F000AFC0E07400C0E07480C0E0121087E581F6
:1005000024FBF581E52EC3952AF532E52F952BF5D1
:1005100033755602E4F5578532828533831207C45A
:1005200085824A85834B854AF47416C0E0E4C0E0B6
:100530007407C0E0E4C0E0749FC0E07400C0E074E1
:1005400080C0E0121087E58124F9F581AAF47B00D0
:10055000C002C00374A8C0E07400C0E07480C0E0B2
:10056000121087E58124FBF581D0D0D001D000D0D6
:1005700007D006D005D004D003D002D083D082D0DB
:10058000F0D0E0D020329000011209E99000021270
:1005900009E97407C0E0E4C0E0E4C0E0C0E074B77B
:1005A000C0E07400C0E07480C0E0121087E58124D0
:1005B000F9F58174C4C0E07400C0E07480C0E0123A
:1005C000108715811581158120930575F40080F839
:1005D0007401C0E0E4C0E07401C0E0E4C0E0749FD6
:1005E000C0E07400C0E07480C0E0121087E5812490
:1005F000F9F58174C9C0E07400C0E07480C0E012F5
:10060000108715811581158174DFC0E07400C0E08A
:100610007480C0E012108715811581158174F5C0B2
:10062000E07400C0E07480C0E0121087158115816D
:100630001581740CC0E07401C0E07480C0E0121039
:10064000871581158115817424C0E07401C0E074A0
:1006500080C0E0121087158115811581743BC0E0C0
:100660007401C0E07480C0E01210871581158115F7
:1006700081D2CA7407C0E0E4C0E0E4C0E0C0E07426
:10068000B7C0E07400C0E07480C0E0121087E5815C
:1006900024F9F58174C4C0E07400C0E07480C0E047
:1006A0001210871581158115817401C0E0E4C0E046
:1006B0007401C0E0E4C0E0749FC0E07400C0E07466
:1006C00080C0E0121087E58124F9F58174C9C0E08B
:1006D0007400C0E07480C0E0121087158115811588
:1006E0008174DFC0E07400C0E07480C0E012108745
:1006F00015811581158174F5C0E07400C0E0748027
:10070000C0E0121087158115811581740CC0E0744A
:1007100001C0E07480C0E012108715811581158139
:100720007424C0E07401C0E07480C0E0121087152A
:100730008115811581743BC0E07401C0E07480C0F4
:10074000E01210871581158115812093030206732D
:100750007451C0E07401C0E07480C0E012108715CD
:100760008115811581020673AA82AB83300818C3F4
:10077000EA94E8EB64809483500B7401254CF54CAB
:10078000E4354DF54DC20830091AC374B89A748B1C
:100790008BF063F08095F05009154C74FFB54C0256
:1007A000154DC209C374DE9A748D8BF063F0809589
:1007B000F05003D20822C3EA9482EB648094805004
:1007C00002D209228582588583597401B55606E400
:1007D000B5570280028018754E00754F00755000A5
:1007E00075510075520075530075540075550074AD
:1007F00002B55606E4B5570280028018754E0075A2
:100800004F0075500075513F7552FA7553ED755490
:100810006B75553A8558828559831210E0AC82ADCC
:1008200083AEF0FFC004C005C006C007C004C00509
:10083000C006C0079031F975F0E6743C120F598577
:10084000825A85835B85F05CF55DE58124FCF5814A
:100850008542828543831210E0AA82AB83A8F0F917
:10086000C05AC05BC05CC05D8A828B8388F0E9128D
:100870001019AA82AB83A8F0F9E58124FCF5818ADE
:10088000828B8388F0E9120EFC8582428583438542
:100890003682853783120A03AA82AB83E558C39A4E
:1008A000F582E5599BF5831210E0AA82AB83A8F08C
:1008B000F974F9C0E07431C0E074E6C0E0743CC083
:1008C000E08A828B8388F0E91210EDAA82AB83A8BC
:1008D000F0F9E58124FCF5818A828B8388F0E912A6
:1008E0000EFC8582448583458542828543831210B0
:1008F000E0AA82AB83A8F0F9C002C003C000C00127
:10090000854E82854F838550F0E551120F59AA829A
:10091000AB83A8F0F9E58124FCF581D007D006D09F
:1009200005D004C002C003C000C0018C828D838E3C
:10093000F0EF121019AA82AB83ACF0FDE58124FC24
:10094000F581854482854583C002C003C004C0058B
:100950001210E0AE82AF83A8F0F9C006C007C00055
:10096000C0018552828553838554F0E555120F5995
:10097000AE82AF83A8F0F9E58124FCF581D005D0E3
:1009800004D003D002C006C007C000C0018A828B19
:10099000838CF0ED121019AA82AB83ACF0FDE581D7
:1009A00024FCF5818A828B838CF0ED120EFCAA82E6
:1009B000AB83C3747F9AE464808BF063F08095F01E
:1009C00050067A7F7B00800FC3EA9480EB648094AA
:1009D0007F50047A807BFF74802AFAE43BFB8558C1
:1009E000368559378A828B8322AA82AB83BA010863
:1009F000BB0005C291D29122BA0207BB0004C29289
:100A0000D2922285825E85835F7C007D007E057F99
:100A100000C3E49EE464808FF063F08095F050277B
:100A20008E02EFCA25E0CA33EA2438F88E021AEAA9
:100A30002A2438F9870209870319A60208A6031891
:100A40001EBEFF011F80CA855E38855F397A067B2E
:100A500000C3E49AE464808BF063F08095F0501F4B
:100A60008A06EBCE25E0CE33EE2438F886060886DB
:100A70000718EE2CFCEF3DFD1ABAFF011B80D27562
:100A80006005E4F5618C828D830210A8AA82AB8395
:100A9000E4BA0104BB000104FC6004D2B68008BAC9
:100AA0000205BB0002D2B7C2C3D2C4EC6004C2B616
:100AB0008008BA0205BB0002C2B78A828B83C002DB
:100AC000C003C004120B53D004D003D002D2C3D24F
:100AD000C48A828B83C002C003C004120B53D004AB
:100AE000D003D002C2C3C2C48A828B83C002C003B7
:100AF000C004120B53AD82AE83D004D003D002D217
:100B0000C3C2C48A828B83C002C003C004C005C0B4
:100B100006120B53AF82A883D006D005D004D003B1
:100B2000D002EC6004D2B68008BA0205BB0002D243
:100B3000B77560007561018D828E83C007C0001299
:100B40000FFCAA82AB83D000D007EA2FF582EB38E6
:100B5000F58322AA82AB837C007D00C20AE4BA013D
:100B600004BB000104F560E4BA0204BB000104FA0E
:100B7000300A03020E71E5607003020CF1A2A7E4D3
:100B800033FBE45401A2E0CB13CB13CBFFA2A6E4CA
:100B900033F8E45403A2E0C813C813A2E0C813C892
:100BA00013C8F9E82BFBE93FFFA2A5E433F8E4C43E
:100BB0002354E0C8C423C868C854E0C868F9E82BC7
:100BC000FBE93FFFA2A4E433F8E4C454F0C8C4C86E
:100BD00068C854F0C868F9E82BFBE93FFFA2A3E41A
:100BE00033F8E4C40354F8C8C403C868C854F8C848
:100BF00068F9E82BFBE93FFFA2A2E433F8E4C8253B
:100C0000E0C833C825E0C833F9E82BFBE93FFFA271
:100C1000A1E433F8E4C825E0C833F9E82BFBE93F49
:100C2000FFA2A0E433F87900E82BFCE93FFDA2A77E
:100C3000E433FBE45401A2E0CB13CB13CBFFA2A619
:100C4000E433F8E45403A2E0C813C813A2E0C813C5
:100C5000C813C8F9E82BFBE93FFFA2A5E433F8E489
:100C6000C42354E0C8C423C868C854E0C868F9E87D
:100C70002BFBE93FFFA2A4E433F8E4C454F0C8C45A
:100C8000C868C854F0C868F9E82BFBE93FFFA2A385
:100C9000E433F8E4C40354F8C8C403C868C854F87B
:100CA000C868F9E82BFBE93FFFA2A2E433F8E4C8E7
:100CB00025E0C833C825E0C833F9E82BFBE93FFF3E
:100CC000A2A1E433F8E4C825E0C833F9E82BFBE936
:100CD0003FFFA2A0E433F87900E82BFBE93FFFECEB
:100CE000B50306EDB507028003020B70D20A020BB2
:100CF00070EA7003020B70C002A287E433F8E45478
:100D000001A2E0C813C813C8F9A286E433FAE45478
:100D100003A2E0CA13CA13A2E0CA13CA13CAFEEAA6
:100D200028F8EE39F9A285E433FAE4C42354E0CA82
:100D3000C423CA6ACA54E0CA6AFEEA28F8EE39F93E
:100D4000A284E433FAE4C454F0CAC4CA6ACA54F0B0
:100D5000CA6AFEEA28F8EE39F9A283E433FAE4C459
:100D60000354F8CAC403CA6ACA54F8CA6AFEEA2815
:100D7000F8EE39F9A282E433FAE4CA25E0CA33CAAC
:100D800025E0CA33FEEA28F8EE39F9A281E433FA05
:100D9000E4CA25E0CA33FEEA28F8EE39F9A280E475
:100DA00033FA7E00EA28FCEE39FDA287E433FAE448
:100DB0005401A2E0CA13CA13CAFEA286E433F8E4BF
:100DC0005403A2E0C813C813A2E0C813C813C8F99B
:100DD000E82AFAE93EFEA285E433F8E4C42354E0AD
:100DE000C8C423C868C854E0C868F9E82AFAE93ECC
:100DF000FEA284E433F8E4C454F0C8C4C868C854FC
:100E0000F0C868F9E82AFAE93EFEA283E433F8E480
:100E1000C40354F8C8C403C868C854F8C868F9E8DB
:100E20002AFAE93EFEA282E433F8E4C825E0C8339A
:100E3000C825E0C833F9E82AFAE93EFEA281E43386
:100E4000F8E4C825E0C833F9E82AFAE93EFEA280B2
:100E5000E433F87900E82AFBE93EFFECB50306ED40
:100E6000B507028005D002020B70D002D20A020B35
:100E7000708C828D83227A01790178B8D8FED9FAF4
:100E8000DAF62222AA8253C47F8AC5748055C4FA36
:100E9000BA80F822AA8253C3BF75C33F43C340C27E
:100EA0009474184AF582120E847A0A7B001ABAFFEB
:100EB000011BEA4B70F7758255120E84743F55C5BD
:100EC000FB7A00758255C002C003120E84D003D095
:100ED00002D29474F055C5FC7D00EC2AFAED3BC4B7
:100EE000CAC4540F6ACA540FCA6ACA8A82F58322D6
:100EF000E4AC83AB82FAF9748E02121D12122770D1
:100F00000AE582458345F0700122E430D112F47085
:100F10000BE5F0F47006E58330E7012290800022B3
:100F2000700AE5F07006E58320E70122907FFF223A
:100F30007A10E4FBFCE58225E0F582E58333F58356
:100F4000EB33FBEC33FCEB9560F5F0EC9561400680
:100F5000FCABF0438201DADD22121304BC00030271
:100F600012A3EF60FA30D502B2D1E583B4FF0302D9
:100F700012B9E582B4FF030212B925834007248227
:100F8000400B0212A324831450030212B9F582EA23
:100F90008DF0A4A8F0EA8EF0A428F8E435F0F9EB7F
:100FA0008DF0A428E935F0F9E433CA8FF0A429F9CB
:100FB000EA35F0FAEBF88EF0A429F9EA35F0FAE414
:100FC00033FBEC8DF0A429F9EA35F0FAE43BFBE8B9
:100FD0008FF0A42AFAEB35F0FBE433CCFD8EF0A4BD
:100FE0002AFAEB35F0FBE43CFCED8FF0A42BFBEC94
:100FF00035F0FC20E7031212D1021282E5828560EF
:10100000F0A4C582C0F08561F0A4D0F025F0C583BE
:101010008560F0A42583F583221213047900E5830B
:10102000B58202800D5003121332E583C3958212FC
:10103000134CE5D0C465D020E117EA2DFAEB3EFB56
:10104000EC3FFC5009740112134CEC4480FC02127A
:1010500082C3EA9DFAEB9EFBEC9FFC500FC3E49920
:10106000F9E49AFAE49BFBE49CFCB2D11212D1029F
:1010700012820219AF85821885831985F01A8509B5
:101080001B901072021418C008858108E50824FB23
:10109000F51BE50824FBF8861808861908861A90BF
:1010A0001072121418D00822C2D5E58330E70DD291
:1010B000D5E4C39582F582E49583F583E56130E755
:1010C0000DB2D5E4C39560F560E49561F561120F4A
:1010D0003030D50BE4C39582F582E49583F5832205
:1010E000AC83AB827A007900748E0219CD1213049E
:1010F00030D502B2D1BF0009BC00030212C60212F1
:10110000B9BC00030212A3E583B4FF0BE582B4FF70
:10111000030212C60212A3E582B4FF030212B9C38E
:1011200095835007247F400B0212A32480145003A0
:101130000212B9C0E0E4CCCBCAF98D608E618F6237
:10114000EF54F0C4F5637583068563F0EB84F58294
:10115000E9C4F9EAC4FAEBC4FBEC540FC47803D633
:10116000FC18EBD6FB18EAD6FA8582F0EDA4A8F0BD
:10117000FD8582F0EEA428FEE435F0F88582F0EFDC
:10118000A428FFE435F0F8E99DF9EA9EFAEB9FFB0D
:10119000EC98FCAD60AE61AF6230E7101582E92DCE
:1011A000F9EA3EFAEB3FFBE43CFC80EDC082D583DC
:1011B00098C3E933F9EA33FAEB33FBEC33FCC3E9C8
:1011C0009DEA9EEB9FEC9400B3E413F9D002D0E0CB
:1011D000C44AFAD003D0E0C44BFBD004D0E0F5F011
:1011E000540FC44CFCD082158230F40FD3EC13FCA6
:1011F000EB13FBEA13FAE913F90582E930E70A7405
:10120000012AFAE43BFBE43CFC02129A7F861219A5
:10121000F3F58222FCABF0AA83A982749EC2D1F5B9
:10122000821212D1021282121A18C3749E95824041
:1012300039790012134C30D126E9F42401F582EA01
:10124000F43400F583EBF43400F5F0ECF434007082
:101250000AE582458345F0700122E430E70F22EC75
:1012600020E71489828A838BF02230D10AE4F58248
:10127000F583F5F074802274FFF582F583F5F07440
:101280007F22B98003EA13B34010EA2401FAE43B59
:10129000FBE43CFC50047C800582BC000EBB000BD0
:1012A000BA0008E4F5F0F583F58222A2D1E58213B5
:1012B0008CF092F78B838A8222E4F583F58275F0B5
:1012C00080F4A2D11322E4F583F58275F0C0747F17
:1012D000227804EC7011E58224F8500AF582E4C902
:1012E000CACBFCD8EF22EC7820058220E713D58208
:1012F0000122C3E933F9EA33FAEB33FBEC33FCD8D0
:10130000EA158222AA82AB83A2F73392D16002D27D
:10131000F7F582ACF0E58124F9F8E6FD08E6FE0871
:1013200086F008E6A2F73392D56002D2F7F583AFD4
:10133000F022E582C583F582A2D133A2D592D113E2
:1013400092D5ECCFFCEBCEFBEACDFA226040F8253B
:1013500082500274FFF582E824F8501ECCCBCAF903
:10136000E4CC24F85014CBCAF9E4CB24F8500BCACF
:10137000F9E4CA24F8500379002224086010F8C365
:10138000EC13FCEB13FBEA13FAE913F9D8F122AAE8
:101390008274A0C0E07413C0E0C00AC00B8A82222D
:1013A0000511E4B51102051222AA8274302AFA242A
:1013B000C6500A74072AFA300B034302208A8202BD
:1013C000138FE582FAC4540FF582C0021213A9D01C
:1013D00002740F5AF5820213A9AA0CAB0DAC0EAD24
:1013E0000FAE10751720EE2EFEED235401FF4206BE
:1013F000EA2AFAEB33FBEC33FCED33FDC3EE951335
:101400004008EEC39513FE430201D517D98A0C8B11
:101410000D8C0E8D0F8E102285820A85830BE4F5CC
:1014200011F512AA18AB19AC1A8A828B838CF012B0
:101430001A2AFD74012AF518E43BF5198C1AEDFA05
:1014400070030219A8BA250280030219A0C20FC2B4
:1014500010C211C212C213C214C215C216C20CC2EB
:101460000DC20E7513007514007515FFAB18AC197D
:10147000AD1A8B828C838DF0121A2AFAA3AB82AC40
:10148000838B188C198D1ABA25078A8212138F80C4
:10149000928A06BE3000402E8A06EE24C64027748B
:1014A000FFB51513E51475F00AA4FEEA24D02EF555
:1014B0001470BFD21080BBE51575F00AA4FEEA24B3
:1014C000D02EF51580ACBA2E0A74FFB515A475158B
:1014D00000809F8A06BE6100400E8A06EE24854089
:1014E000075302DFD20B8002C20BBA20028075BA0A
:1014F0002303021573BA2A03021578BA2B02805F00
:10150000BA2D028055BA4202805FBA43030215BD6C
:10151000BA44030216F8BA4503021712BA46030288
:10152000170EBA4703021716BA49030216F8BA4C47
:1015300002803BBA4E0302171ABA4F030216FFBAD3
:101540005003021691BA53030215E1BA550302176C
:1015500004BA5803021709021744D20F021472D2B8
:1015600011021472D212021472D214021472D21521
:10157000021472D21602147274FFB5152030140BC7
:10158000E51B14F8881B8614021472E51B24FEF870
:10159000881B8606088607188E1402147230140BF6
:1015A000E51B14F8881B8615021472E51B24FEF84F
:1015B000881B8606088607188E1502147230140AD6
:1015C000E51B14F8881B8602800FE51B24FEF888B3
:1015D0001B8603088604188B028A8212138F021757
:1015E00049E51B24FDF8881B860308860408860548
:1015F00018188B0C8C0D8D0E8B828C838DF0121A2B
:101600005FAB82AC838B1674FFB51503851615206E
:101610000F1DC3E51695145016E514C39516F51461
:10162000AB141514EB600875822012138F80F185BE
:101630000C82850D83850EF0121A2AFBFA6029AB05
:10164000151515C3E464808BF063F08095F0501895
:101650008A8212138FAB0CAC0DAD0E0BBB00010CCC
:101660008B0C8C0D8D0E80C7200F03021749C3E52C
:101670001695144003021749E514C39516F514ABEB
:10168000141514EB700302174975822012138F8012
:10169000EEE51B24FDF8881B8603088604088605F2
:1016A00018188B0C8C0D8D0EE50EFB30E7047A4379
:1016B0008013EB546060047A50800AEB30E6047AC1
:1016C0004980027A588A82C00212138F75823A12B8
:1016D000138F75823012138F75827812138FD00298
:1016E000BA4902800BBA50028006850D821213C2DD
:1016F000850C821213C28051D21375130A804A7569
:101700001308804575130A8040751310803BD20C76
:101710008037D20D8033D20E802FE51B24FDF88850
:101720001B860308860408860518188B0C8C0D8D03
:101730000E8B828C838DF0E511121A46A3E51212EE
:101740001A4680058A8212138F200C06200D033062
:101750000E5AE51B24FCF8881B86030886040886BD
:10176000050886061818188B0C8C0D8D0E8E0F75BB
:101770000C5B750D01750E80850C1C850D1D850E8D
:101780001E7401251CFEE4351DFFAB1E8E0C8F0D53
:101790008B0E851C82851D83851EF0121A2AFBFA8A
:1017A00070030214238A8212138F80CCE513700316
:1017B0000214237B6930142BE51B14F8881BE6FC0C
:1017C0003395E0FDFEFF8C0C8D0D8E0E8F0F2013D8
:1017D0005EAC0C7D007E007F008C0C8D0D8E0E8F1C
:1017E0000F804C30151FE51B24FCF8881B8604086D
:1017F00086050886060886071818188C0C8D0D8E2D
:101800000E8F0F802AE51B24FEF8881B86040886AD
:101810000518ED3395E0FEFF8C0C8D0D8E0E8F0FAD
:1018200020130CAC0CAD0D7E007F008E0E8F0F30A0
:101830001643E50C450D450E450F60397408B51388
:101840000C758230C00312138FD00380287410B53A
:101850001323758230C00312138FD003300B0C7525
:101860008278C00312138FD003800A758258C00398
:1018700012138FD003301325AC0CAD0DAE0EE50F57
:10188000FF30E717C3E49CFCE49DFDE49EFEE49F6B
:10189000FF8C0C8D0D8E0E8F0F8002C213751600FB
:1018A000D2178B00751000C0001213D9D00020177A
:1018B0000DE510C4FCE6FD4CF61888038002A61066
:1018C0000516B217E50C450D450E450F70D6880379
:1018D000E514700375140120101A200F17E5160483
:1018E000FCC39514500E758220C00312138FD003D1
:1018F000151480E930130E75822DC00312138FD09A
:101900000315148024E516602030110E75822BC05B
:101910000312138FD0031514800F30120C75822020
:10192000C00312138FD0031514200F1EAC1415140E
:10193000C3E5169C50273010047C3080027C208C3C
:1019400082C00312138FD00380E2C3E516951450B2
:1019500009E514C39516F51480037514008B00ABCC
:10196000161516EB6022B21720170A08E6C4540FAA
:10197000FB8B1080078603740F5BF510851082C007
:10198000001213A9D00080D7200F03021423AB1438
:101990001514EB700302142375822012138F80EE4E
:1019A0008A8212138F02142385118285128322AA40
:1019B00082BA0A0810990280FB75990D109902806D
:1019C000FB8A9922FCABF0AA83A982749EF582C29D
:1019D000D1EC30E716D2D1E9F42401F9EAF434006D
:1019E000FAEBF43400FBECF43400FC1212D10212D6
:1019F000827F9E121A1830D1030212A3C3EF958280
:101A0000500974FFF5F0F583F58222790012134C2A
:101A100089828A838BF0EC22AA82AB83A2F733926D
:101A2000D16002D2F7F582ACF02220F71430F61420
:101A30008883A88220F507E6A88375830022E280C8
:101A4000F7E49322E02220F71030F6118883A88271
:101A500020F507F6A88375830022F280F7F022AA0A
:101A600082AB83ACF07D007E008A828B838CF01287
:101A70001A2AFFA3AA82AB83EF60070DBD00EA0E0E
:101A800080E78D828E8322000000000000000000AD
:00000001FF
